S010000065436F6D706173732E73726563D9
S11300000C946C090C9489090C9489090C94890941
S11300100C9489090C9489090C9489090C94890914
S11300200C9489090C9489090C9489090C94201F57
S11300300C9489090C9489090C9489090C948909F4
S11300400C9489090C9489090C94F00B0C9489097B
S11300500C9489090C9489090C9489090C948909D4
S11300600C94630A0C9489099A13F313FA13291450
S11300706A14AB14EC140415DB1EEA1EEE1EFB1E00
S1130080021F091F121F0000110023003400460044
S1130090570069007A008B009C00AE00BF00D000BE
S11300A0E100F20003011401240135014601560167
S11300B06601770187019701A701B601C601D50141
S11300C0E501F4010302120221022F023E024C0256
S11300D05A0268027502830290029D02AA02B702C4
S11300E0C302CF02DB02E702F302FE020903140398
S11300F01F03290333033D034703500359036203DA
S11301006B0373037B0383038A03920399039F03A3
S1130110A603AC03B203B703BC03C103C603CA03FB
S1130120CE03D203D603D903DC03DE03E103E303E6
S1130130E403E603E703E703E803E803E803E7036C
S1130140E703E603E403E303E103DE03DC03D9038B
S1130150D603D203CE03CA03C603C103BC03B70349
S1130160B203AC03A6039F03990392038A03830398
S11301707B0373036B0362035903500347033D037B
S1130180330329031F0314030903FE02F302E702E6
S1130190DB02CF02C302B702AA029D0290028302CD
S11301A0750268025A024C023E022F022102120218
S11301B00302F401E501D501C601B601A7019701C7
S11301C087017701660156014601350124011401B6
S11301D00301F200E100D000BF00AE009C008B00E0
S11301E07A00690057004600340023001100000023
S11301F0EFFFDDFFCCFFBAFFA9FF97FF86FF75FF76
S113020064FF52FF41FF30FF1FFF0EFFFDFEECFEB7
S1130210DCFECBFEBAFEAAFE9AFE89FE79FE69FEDA
S113022059FE4AFE3AFE2BFE1BFE0CFEFDFDEEFDC2
S1130230DFFDD1FDC2FDB4FDA6FD98FD8BFD7DFD66
S113024070FD63FD56FD49FD3DFD31FD25FD19FDA4
S11302500DFD02FDF7FCECFCE1FCD7FCCDFCC3FC7E
S1130260B9FCB0FCA7FC9EFC95FC8DFC85FC7DFCD8
S113027076FC6EFC67FC61FC5AFC54FC4EFC49FCA9
S113028044FC3FFC3AFC36FC32FC2EFC2AFC27FCE6
S113029024FC22FC1FFC1DFC1CFC1AFC19FC19FC90
S11302A018FC18FC18FC19FC19FC1AFC1CFC1DFC9D
S11302B01FFC22FC24FC27FC2AFC2EFC32FC36FC0E
S11302C03AFC3FFC44FC49FC4EFC54FC5AFC61FCE7
S11302D067FC6EFC76FC7DFC85FC8DFC95FC9EFC2D
S11302E0A7FCB0FCB9FCC3FCCDFCD7FCE1FCECFCE6
S11302F0F7FC02FD0DFD19FD25FD31FD3DFD49FD18
S113030056FD63FD70FD7DFD8BFD98FDA6FDB4FDDE
S1130310C2FDD1FDDFFDEEFDFDFD0CFE1BFE2BFE3F
S11303203AFE4AFE59FE69FE79FE89FE9AFEAAFE4D
S1130330BAFECBFEDCFEECFEFDFE0EFF1FFF30FF1F
S113034041FF52FF64FF75FF86FF97FFA9FFBAFFC5
S1130350CCFFDDFFEFFF0000BF0003030304030530
S113036004060D00FE09FE0900017D02D808B02034
S11303700500EE0721074AC3C7A14422089DDA8776
S11303808445002310CDC24F52247298A41C2649E0
S1130390910800240F4EC2978C12D14693A844684A
S11303A02200250F4EC2C74812A904658A914A4407
S11303B034260F4EC2CF48A2A7912432A988260121
S11303C0270722D7C72100280CCCC297442411A99F
S11303D0896402290DCCC2874C2413A988242200E5
S11303E02A0D36C64F28263A9464A108002B0B36F2
S11303F0C6975074280945002C08A4BECF8A120061
S11304002D060ECE87012E089CBE8F8422012F0C50
S11304104EC2A79A50A628130A01300E4EC2972C3A
S11304201411F12409C54400310B4EC2976C141108
S1130430EAC900320E4EC20F4544128A4632A1D098
S113044000330D4EC28751A6461592241400340D74
S11304504EC2A76C4491904887A002350E4EC2C785
S11304602128AC888442928402360E4EC20F454441
S11304701456444C120A00370D4EC287514D2813AE
S1130480CA843200380E4EC20F45C424A188982471
S11304901400390E4EC20F45C424290A49120A0019
S11304A03A0CC4BE8F842287492812003B0BC4BE79
S11304B08F84229E4C94003C084EC2A74C571D3D8D
S11304C00726CA871D6A3E094EC28754371D013F5D
S11304D00E4EC20F4544128A6672985004400F4E65
S11304E0C20F25B652894CAA31090500410B4EC2F0
S11304F00F45C474187112420C4EC24745C474119E
S1130500315D00430B4EC20F4544D4938402440A28
S11305104EC24745C44F1700450B4EC2C721A858C9
S1130520112A1A460B4EC2C721A858116A04470C57
S11305304EC20F4544542931490A480B4EC287889C
S1130540D361C4490049094EC28749A84F064A0AE3
S11305504EC2A73E922414004B0F4EC2876C4491A6
S113056090662489122D004C084EC287503F1A4DC4
S11305700B4EC2477074388878124E0D4EC287886D
S113058054A91C264D24014F0B4EC20F45C44F12D3
S11305900A00500B4EC24745C474116A04510C56EC
S11305A0BE0F45C4538532A10A520D4EC24745C4FD
S11305B0742149946801530E4EC20F4544945285E8
S11305C02409050054094EC28749A89F00550A4EC4
S11305D0C287883F492800560D4EC287884912CAEF
S11305E044132A01570B4EC28788A7C341340C58C1
S11305F00F4EC247702409856832528A6818590C14
S11306004EC287882421D1843A015A0A4EC28751A6
S11306104D47A1015B08CCC287499F085C0C4EC2C0
S113062087502A942A4A85025D08CCC207499F0C48
S11306305E0926D6978C221A065F0716BEC7A1004C
S113064060079CDE874C01610A36C20F557222494D
S11306500A620B4EC28750B122E27401630B36C2A8
S11306600F454454925000640A4EC2A7961327497A
S113067001650C36C20F4574188A241400660C4EAA
S1130680C2D748A228A309B501670E46BACF1249BA
S113069042915244120A00680B4EC28750B122E2C2
S11306A04900690A4EC297500E1AEA646A0C5EBA8F
S11306B0A73A4CA8234942016B0D4EC287501345FB
S11306C042224994046C084EC2CF503F196D0A3639
S11306D0C28744723831096E0936C24745C4930053
S11306E06F0A36C20F45C4494201700B46BA4745EA
S11306F0C474112A02710A46BACF894952D40072CD
S11307000936C2474544D408730D36C20F45241137
S11307104B44120A00740C46C28F5056126A114D93
S113072000750936C28788274901760B36C2878847
S11307304942A28900770B36C28788E970094500CF
S1130740780C36C28788242151442401790C46BA96
S1130750878893A4489250007A0A36C28751269219
S1130760090D7B0CCCC24F4926914944B2017C0748
S11307704AC3C703017D0DCCC2C74C24914964A26E
S11307800A007E091EDA8FE8109200A00500EE0729
S1130790A10752C307E970A20F46C65FEC12998401
S11307A02421494A2D04A30D4EC2D748A2282B095F
S11307B0555600A40C36C687E8100965398404A58B
S11307C00E4EC287882421514C22935004A608520D
S11307D0C3C7217808A70F56C20F4544A5884812FD
S11307E02A494201A80795E2878422A91056C20F1C
S11307F045349448482489E2484201AA09BDCA07FD
S1130800F110BA16AB113EC697242289484291983A
S11308102426894902AC0726C6875103AD068CCE2F
S11308200701AE1156C20F4534945422938A4A8468
S113083024A100AF068DE64701B00A26D60F454431
S1130840925000B10B3EC697506412CA2106B20AF8
S113085034D2C72422922811B30A34D2C724A23630
S1130860A900B4089CDE97440900B50A3EBE8788F7
S1130870A7831400B6104EC2CFE11069894C42928E
S113088090242409B70612D30701B80793BA0F05B9
S113089000B90934D28F64A48500BA09BDCECFC48F
S11308A0661917BB123EC6474416914564915044DD
S11308B01291444400BC0D56C28F6CA8E936928450
S11308C08802BD0D56C28F6CA8489908658A04BE7B
S11308D01156C2C72C22938A22128A6C240911054C
S11308E0BF0F56C297500E13CA144524090500C001
S11308F00E56C28F540E935144A4C38824C10E567D
S1130900C29F3A4C4611910E239200C20F56C2D791
S1130910482287C82822D2614412C30F56C29724A2
S1130920450E925144A4C38824C40F56C287882418
S113093087C82822D2614412C50F56C20F298926BE
S1130940A3884887114900C60C4EC2CF61A29743C1
S1130950442F03C70C5EBA0F4544D49384A606C83B
S11309600E56C28F540E39048524A1D000C90D56E9
S1130970C29F3AE4101492844203CA0E56C2D74866
S1130980223E048524A1D000CB0E56C28788243E83
S1130990048524A1D000CC0B56C28F540E310975A6
S11309A032CD0B56C29F3AC424D4C900CE0B56C2D2
S11309B0D7482236097532CF0B56C28788243609A8
S11309C07532D00C4EC24749A24B455F2E00D10F61
S11309D056C29724452E22550E93124900D20D5625
S11309E0C28F540EA28878925000D30C56C29F3AFC
S11309F08822E2494201D40D56C2D74822A78878FA
S1130A00925000D50E56C29724450EA18878925074
S1130A1000D60D56C2878824A78878925000D70B39
S1130A202EC687484293514402D80E56BE6F842284
S1130A3069B1B448285100D90C56C28F540E11F133
S1130A40494201DA0C56C29F3A44C427090500DB27
S1130A500C56C2D7482216F1494201DC0C56C28713
S1130A60882416F1494201DD0E56C29F3A442409F6
S1130A708568424D00DE0C4EC287B02262BA08156A
S1130A8001DF0C4EC20F45C4A213170900E00D4E3E
S1130A90C297540EA14A4E944901E10C4EC29F3AAA
S1130AA0882A39512605E20D4EC2D74822A74A4E5C
S1130AB0944901E30E4EC29724450EA14A4E94492F
S1130AC001E40B4EC28FEE54C9893229E50E56C299
S1130AD0D72C129B43A892136552E60E36C20F4DD3
S1130AE012B1882292882402E70C46BA0F45445476
S1130AF092D0D400E80E4EC297540EA1880E4391B2
S1130B008402E90E4EC29F3A88223A0C45120A002A
S1130B10EA0E4EC2D74822A7880E43918402EB0DF9
S1130B204EC28FEE14D16128925000EC0ACCC287D9
S1130B304C3AD28500ED0ACCC297443AD28500EEF5
S1130B400A4DC2CF4479A61301EF0BCDC28784228C
S1130B509DE94401F00E56C28F2426A34A4E9C24DC
S1130B601400F10C4EC29724455E99903809F20D99
S1130B704EC28F540EA28838492800F30C4EC29FEF
S1130B803A8822E224A100F40D4EC2D74822A78855
S1130B9038492800F50E4EC29724450EA1883849DD
S1130BA02800F60C4EC28FEE141127090500F70C2D
S1130BB03EC697500EB143842200F80E4EBE6F8499
S1130BC022A2942A2409250AF90B4EC28F540E112D
S1130BD0F13229FA0B4EC29F3A44C4CBA400FB0B5A
S1130BE04EC2D7482216F13229FC0A4EC28FCE22B9
S1130BF05E2605FD0E5EBA9F3A44C4655224492818
S1130C0000FE0F56BA8750453221912A144521001F
S1130C10FF0D5EBA8FCE222E13459284020000008F
S1130C2004FFFF0000BF00020203040304040508DC
S1130C3000FF06FF0600011A023106962005007E19
S1130C40032107316333520022079B6E93AC0023C8
S1130C500D3D6257A634543554991200240A3D625E
S1130C609B57BD53DA112508AB6613536700260A58
S1130C703C621753B36AA6002705196F332807B2DD
S1130C8062A79A012908B2621353A5002A0A2C62AA
S1130C9013931A49C5002B0A2D629B511C32A308D9
S1130CA02C079B5EA74A002D060C6A33022E079B75
S1130CB05E9756022F0834625FB633003008B36281
S1130CC057B92A003107B36297646B320A3462A7BA
S1130CD0624E2A8F00330A34623362D448260534C4
S1130CE00A34621B5535624E00350A346233F446C9
S1130CF0322900360A3462A7F28A322900370A34CC
S1130D00623372CC314700380A3462A762525126EA
S1130D1005390A3462A7A24C3B29003A07AA623378
S1130D20E2083B08B35E672355023C07B3629BCAE3
S1130D305C3D081C6633321A013E08B36293CB54FF
S1130D40023F09B362D74C192600400C455E2BA321
S1130D505C492559430541093462A7A21C53064244
S1130D600A3462B3E248518E0443093462A7A22EC6
S1130D70930244093462B3A27324004509346233F4
S1130D80F4CA79044609346233F4CA3500470A3494
S1130D9062A7A24E3329004809346213E59866001D
S1130DA04907B362B3626B4A09346237735546002C
S1130DB04B093462135592A9334C08346293BB47F0
S1130DC0004D09346213C711CD004E09346213D7A4
S1130DD05867004F093462A7A2332900500A3462CD
S1130DE0B3A21C29670051093C5EA7A25C6E145291
S1130DF00A3462B3A21C29CA00530A3462A762CA25
S1130E00A84C0A5408B362B362170055083462133D
S1130E103D930256093462139D492A0057093462EE
S1130E2013CD71C400580A34621365922ACA00595A
S1130E300B35629375AA33CA28025A093462337295
S1130E406C8F005B07B3623362735C0A3462933362
S1130E50CA28A31C5D07B362339B235E069372D733
S1130E60005F060C5E33026006927213036108246D
S1130E706237A24C03620A346293F38A72240063D9
S1130E8007A36237B300640934625F8D28D3006519
S1130E90082462A7D2C80A660934625B9533470006
S1130EA067092C5EA762DA49016809346293F38A00
S1130EB066006908B3629791AC066A09BB5E9B61E0
S1130EC0A92A006B09346293CB91A20C6C07B3621C
S1130ED023BB066D092562A35A2AA9026E07246260
S1130EE0B3A2196F082462A7A24C0A70092C5EB33E
S1130EF0E248390371082C5E3762DA05720824620D
S1130F0093929D017307A36237F202740A346297C5
S1130F10E3CC2926007507246213CD347607A36237
S1130F2093AC0A770925629355525D0078082462D0
S1130F3013935431790A2C5E13651A3129007A0807
S1130F402462336239027B0B3C62AB324A1AC58C91
S1130F50047C053163737D0C3C62A351CC486594D9
S1130F6024007E071472975402A005007E03A10793
S1130F703163934600A209345E1B476ACE04A30A78
S1130F8034625B8D98934A00A40A2D6293D34C710A
S1130F90E500A50B3562935335641C3202A606396D
S1130FA063B306A70A3C6237F28A698F04A8068BEA
S1130FB0769302A90A3562B7AA3955B500AA07ABD8
S1130FC06AB7921EAB081C6697544C01AC069B6230
S1130FD0330BAD058B6A33AE093562F7A1965A001F
S1130FE0AF058B7633B0069B6ED705B108AB62971D
S1130FF0564603B207AB6AD74C69B307AB6AA32F53
S113100000B4069272A700B5092C5E13CD9132008C
S1131010B60C356237461A29A998620AB705096BD6
S113102013B806925EA700B907AB6A976435BA078E
S1131030AB6AD78D06BB081C6693625209BC0A3C96
S113104062935B518D9800BD0A3C6293ABA4728C91
S113105003BE0C3C629351CC4855232600BF09B310
S11310606297618AA902C00A3C62975154714C1973
S1131070C1093C625BAB38A60CC20A3C62A762524F
S1131080714C19C30A3C62975454714C19C40A3CFC
S113109062133354714C19C50A3C62A76252714CF5
S11310A019C609346237526BA84AC70A3C5EA7A224
S11310B02E938C00C80A3C6297511A7AE511C9092B
S11310C03C625B0EBDF208CA0A3C62A7E2D82B8FD1
S11310D000CB0A3C6213331A7AE511CC09BB629344
S11310E0D38AD500CD09BB629BD28AD500CE09BB79
S11310F062578D14AB01CF09BB6293F28AD500D03D
S11311000B356237E348658A6901D10A3C6297541A
S1131110B9D49401D20A3C62975154D14C0AD309F0
S11311203C625BAB682605D40A3C62A76252D14C90
S11311300AD50A3C62975454D14C0AD60A3C62132D
S11311403354D14C0AD7069B62933AD80934623798
S1131150D2918E04D9093C629751E94C0ADA083CD1
S113116062DB742605DB093C62A7A2675200DC0A35
S11311703C6213338ACEA400DD0B3D625FE6546704
S1131180945104DE0A3462935794236500DF0934D2
S113119062A7A2EA5409E00A3C629751C623CA3402
S11311A0E1093C625B5323CA34E20A3C625B653862
S11311B0A24C03E30A3C629754C623CA34E40934BC
S11311C06257C311651AE50A3C62A7629223CA34C6
S11311D0E609256233A2324700E708AB5E37B34A1B
S11311E000E80B3C629751C62A8DAC00E90A3C62C8
S11311F05B532A8DAC00EA0B3C62A762862A8DAC55
S113120000EB0A3462574395465600EC09BB6293DF
S11312103392D500ED09BB629B3292D500EE08BB38
S113122062D796D500EF08B36293B2AC06F00C3CDB
S113123062936295511A312900F10A3C62975486EF
S11312402B9A01F20B3C629751C62ACAA400F30AF6
S11312503C625B532ACAA400F40B3C62A762862A50
S1131260CAA400F50B3C629754C62ACAA400F60A25
S11312703462133354512605F708AB6297D14609FB
S1131280F809246237D2482301F90A3C629751864F
S1131290D14C03FA093C625BE368A601FB0A3C6299
S11312A0A76246D14C03FC09346213338A661AFDE3
S11312B00B445E5BE328D3884901FE0A3C5E93F34A
S11312C08A23E50CFF0C3C5E13338A328D9814009C
S11312D000000004FFFF000011241FBECFEFD8E080
S11312E0DEBFCDBF14E0A0E0B1E0E4E4F9E602C063
S11312F005900D92A83BB107D9F726E0A8EBB4E01E
S113130001C01D92A53AB207E1F70E94B6150C94EC
S1131310A0340C94000089B18695869591E08927C4
S11313208170089589B182958F7091E089278170C9
S1131330089589B182958695877091E08927817097
S1131340089589B186958695869591E0892781705F
S113135008958AB1837C8AB98BB18C638BB9089563
S11313609093B9048093B80408958091B80490913F
S1131370B904892B91F10E948B09882339F0E091FB
S1131380B804F091B90482E0099508950E94920985
S1131390882339F0E091B804F091B90483E0099509
S11313A008950E949909882339F0E091B804F091D6
S11313B0B90484E0099508950E94A109882339F0AD
S11313C0E091B804F091B90481E009950895E091A1
S11313D0B804F091B90480E009950895089585EA68
S11313E08093BC00809100018830E1F780E008958B
S11313F085E98093BC00089585EA8093BC0080E071
S113140090E005C00196803426E0920730F42091E4
S113141000012031B9F780E0089582E0089585E85D
S11314208093BC0080E090E005C00196803426E003
S1131430920730F4209100012831B9F780E0089533
S113144083E0089585E88093BC0080E090E005C0C7
S11314500196803426E0920730F42091000128326E
S1131460B9F780E0089583E0089585E88093BC008F
S113147080E090E005C00196803426E0920730F4C5
S1131480209100012034B9F780E0089583E00895A5
S1131490882329F085EC8093BC0030E504C085E8FE
S11314A08093BC0038E580E090E005C0019680346C
S11314B026E0920730F4209100013213F7CF80E048
S11314C0089584E008951F920F920FB60F9211248D
S11314D08F938091B900887F809300018F910F9042
S11314E00FBE0F901F901895CF92DF92EF92FF924C
S11314F00F931F93CF93D82EC62E7A0189010E9491
S1131500EF09C82F882321F00E94F8098C2F65C0A9
S11315108D2D880F8093BB000E940F0AC82F88234B
S113152021F00E94F8098C2F58C0C092BB000E9481
S1131530220AC82F882321F00E94F8098C2F4DC05D
S11315400E94FC09C82F882321F00E94F8098C2FDF
S113155044C08D2D90E0880F991F81608093BB005B
S11315600E94350AC82F8823C1F00E94F8098C2FE5
S113157034C081E00E94480AC82F882321F00E94C9
S1131580F8098C2F2AC0F701EC0DFD1D8091BB00DA
S113159080838FEFC81AD80A02C0C12CD12CC8018D
S11315A00197C816D90628F380E00E94480AC82F7C
S11315B0882321F00E94F8098C2F0FC0F701EC0D4D
S11315C0FD1D8091BB0080830E94F8098FE891E0A3
S11315D00197F1F700C0000080E0CF911F910F91B7
S11315E0FF90EF90DF90CF900895CF92DF92EF922B
S11315F0FF920F931F93CF93182F062F6A0179013F
S11316000E94EF09C82F882321F00E94F8098C2F2B
S113161037C0110F1093BB000E940F0AC82F8823F4
S113162021F00E94F8098C2F2BC00093BB000E946C
S1131630220AC82F8823B1F00E94F8098C2F20C0F9
S1131640F601E00FF11F80818093BB000E94220A03
S1131650C82F882321F00E94F8098C2F11C00F5F36
S11316601F4F02C000E010E00E151F0548F30E9452
S1131670F8098FE891E00197F1F700C0000080E0DD
S1131680CF911F910F91FF90EF90DF90CF9008952D
S11316909B01AC01E9EBF0E080818C7F808360E00A
S11316A074E284EF90E00E94F730DA01C9014097B8
S11316B0A109B109B695A795979587958093B80028
S11316C085E08093BC0008954F925F926F927F9261
S11316D08F929F92AF92BF92CF92DF92EF92FF923E
S11316E00F931F93CF93DF936B017C01DC01CB013C
S11316F0880F991FAA1FBB1F880F991FAA1FBB1F02
S11317009C01AD01220F331F441F551F0F2E812C46
S1131710F4E29F2EF4EFAF2EB12CF02DC501B401ED
S11317200E94F730890101501109E9012297220F23
S1131730331F220F331F220F331F40E050E0C50137
S1131740B4010E94193129013A019801220F331F73
S1131750220F331F220F331F40E050E0C501B401B4
S11317600E941931DA01C9014C145D046E047F042E
S113177048F44601570184189508A608B7082401BF
S1131780350104C04C185D086E087F088C159D0552
S1131790AE05BF0528F4C21AD30AE40AF50A08C044
S11317A0DA01C9018C199D09AE09BF096C017D01DB
S11317B0C414D504E604F70408F0E801CE01DF916F
S11317C0CF911F910F91FF90EF90DF90CF90BF903A
S11317D0AF909F908F907F906F905F904F900895FF
S11317E01F920F920FB60F9211242F933F934F9392
S11317F05F936F937F938F939F93AF93BF93EF9375
S1131800FF938091C600E091BA04F091BB04309735
S113181009F009959BB180E489278BB9FF91EF9179
S1131820BF91AF919F918F917F916F915F914F91F4
S11318303F912F910F900FBE0F901F90189590938A
S1131840BB048093BA04089522E02093C0000E9450
S1131850640B9093C5008093C40088E98093C10011
S113186086E08093C20008959091C00095FFFCCF5C
S11318708093C60008951F93CF93DF9300D000D0C8
S1131880CDB7DEB7813039F0823041F0833049F092
S113189090E020E008C091E020E005C090E021E065
S11318A002C091E021E030E0220F331F22953295EF
S11318B0307F3227207F3227892F90E082959295BE
S11318C0907F9827807F9827822B898321E030E0BE
S11318D0AE014F5F5F4F60E68EE10E94F50A182F5C
S11318E0811162C02FEF81EE94E02150804090403E
S11318F0E1F700C0000021E030E0AE014E5F5F4F31
S113190061E68EE10E94740A11114FC02FEF81EE3F
S113191094E0215080409040E1F700C000008A81AB
S113192083608A8321E030E0AE014E5F5F4F61E661
S11319308EE10E94F50A11113AC02FEF81EE94E076
S1131940215080409040E1F700C0000087E58B8380
S113195021E030E0AE014D5F5F4F60E289E10E941B
S1131960F50A811125C02FEF81EE94E021508040CB
S11319709040E1F700C0000088E08C8321E030E073
S1131980AE014C5F5F4F63E289E10E94F50A811169
S11319900FC02FEF81EE94E0215080409040E1F79A
S11319A000C0000080E004C003C0812F01C0812F6B
S11319B00F900F900F900F90DF91CF911F9108958A
S11319C00F931F93CF93DF9300D000D000D0CDB7F7
S11319D0DEB78C0126E030E0AE014F5F5F4F68EA6E
S11319E089E10E94740A811132C08A8190E0982FA3
S11319F088272981822B9595879595958795959527
S1131A00879595958795F801918380838C8190E0E3
S1131A10982F88272B81822B959587959595879567
S1131A209595879595958795938382838E8190E08C
S1131A30982F88272D81822B959587959595879545
S1131A4095958795959587959583848380E02696CB
S1131A500FB6F894DEBF0FBECDBFDF91CF911F91BB
S1131A600F9108950F931F93CF93DF9300D000D06D
S1131A7000D0CDB7DEB78C0126E030E0AE014F5F79
S1131A805F4F68EA89E10E94740A81111AC08A8151
S1131A9090E0982F88272981822BF80191838083F5
S1131AA08C8190E0982F88272B81822B93838283CB
S1131AB08E8190E0982F88272D81822B95838483B3
S1131AC080E026960FB6F894DEBF0FBECDBFDF913F
S1131AD0CF911F910F9108950F931F93CF93DF938D
S1131AE000D000D000D0CDB7DEB78C0126E030E0C6
S1131AF0AE014F5F5F4F68EE8EE10E94740A811160
S1131B001AC08A8190E0982F88272981822BF801B6
S1131B10918380838C8190E0982F88272B81822B5E
S1131B20938382838E8190E0982F88272D81822B46
S1131B309583848380E026960FB6F894DEBF0FBEAB
S1131B40CDBFDF91CF911F910F910895CF93DF9374
S1131B5000D000D000D0CDB7DEB789839A836B83E1
S1131B607C834D835E8326E030E0AE014F5F5F4FA0
S1131B7065EC8EE10E94F50A26960FB6F894DEBF56
S1131B800FBECDBFDF91CF91089526E9AC01249F0C
S1131B90C001259F900D1124BC01990F880B990B4E
S1131BA008950F931F93CF93DF938C01C62FD42FE7
S1131BB00E94BF2E811138C0C93429F118F4C832EB
S1131BC031F02FC0CA3419F1CB3471F12AC084B179
S1131BD0846084B984B1826084B984B1816084B939
S1131BE085B18E7F85B98FE39CE90197F1F700C039
S1131BF0000085B1816085B9EFE3FCE93197F1F725
S1131C0000C0000011C085B18B7F85B90DC0DD23F4
S1131C1021F085B1826085B907C085B18D7F85B912
S1131C2003C081E0F801818F81E0DF91CF911F91A2
S1131C300F9108959C0146E050E060E070E08DEA69
S1131C4095E00E94442508953F924F925F926F92CF
S1131C507F928F929F92AF92BF92CF92DF92EF9238
S1131C60FF920F931F93CF93DF934C010FE02FE16B
S1131C7030E04FE150E06FE570E08DEA95E00E94BE
S1131C80B120C401865A9F4F68E671E00E94E33098
S1131C906C01C4010E942018CFE19C01C29FC001C5
S1131CA0C39F900D112408EE13E0B8010E94E330A5
S1131CB0DFE53D2E361AC4010E9428182227332757
S1131CC0281B390BC29FC001C39F900D1124B8017A
S1131CD00E94E3300F2EFFE1FF2EF02DF60EC4011B
S1131CE00E9420189C01C29FC001C39F900D112423
S1131CF0B8010E94E3300F2EFFE55F2EF02D560E43
S1131D00C4010E94281822273327281B390BC29F9D
S1131D10C001C39F900D1124B8010E94E3304C2EE2
S1131D20461AC6010E9420189C01220F331F220F5D
S1131D30331F820F931FB8010E94E3300F2EFFE57B
S1131D408F2EF02D860EC6010E942818919581953C
S1131D5091099C01220F331F220F331F820F931FFF
S1131D60B8010E94E330C61BC6010E9420189C01E2
S1131D70220F331F220F331F820F931FB8010E94BB
S1131D80E330D61BC6010E942818919581959109CC
S1131D909C01220F331F220F331F820F931FB801A0
S1131DA00E94E330615E662E712CAD2EB12CD0E022
S1131DB0912C4F2D50E0632D70E0630175018E016D
S1131DC094018DEA95E00E942C2AC42CD12CE52C98
S1131DD0F12C86019701A301B5018DEA95E00E94DB
S1131DE0F7268E019401A601B7018DEA95E00E94C1
S1131DF0F726DF91CF911F910F91FF90EF90DF9025
S1131E00CF90BF90AF909F908F907F906F905F9096
S1131E104F903F900895FF920F931F93CF93DF93BA
S1131E20EC01F62E0091DD051091DE05BC018DEA72
S1131E3095E00E94B12511279801281B3109B901A9
S1131E4012F46F5F7F4F759567954F2D50E077279C
S1131E509E018DEA95E00E944425DF91CF911F9168
S1131E600F91FF90089521ED3DE04AEF5DE26CE5AE
S1131E7074E08DEA95E00E94EB208DEA95E00E94E3
S1131E80CD2C60E18DEA95E00E94E32C60E08DEAC0
S1131E9095E00E94D82C0895DF92EF92FF920F9361
S1131EA01F93CF93DF9300D000D000D0CDB7DEB71F
S1131EB0D82EE92E8DEA95E00E94991F65E27CE018
S1131EC08DEA95E00E949A2583E091E00E941A0E23
S1131ED0EF92DF928EE091E09F938F931F9268942C
S1131EE0FF24F6F8FF9203E216E01F930F930E947B
S1131EF07631980140E150E060E070E08DEA95E0D1
S1131F000E94442528E531E049E150E060E070E0BA
S1131F108DEA95E00E944425BE016B5F7F4F80E00F
S1131F200E94CE1B8D819E810E94AF1A9F938F9336
S1131F308BE191E09F938F931F92FF921F930F93D6
S1131F400E947631980141E250E060E070E08DEA51
S1131F5095E00E944425BE016D5F7F4F80E00E94A2
S1131F60DE1B8B819C810E94AF1A9F938F9384E226
S1131F7091E09F938F931F92FF921F930F930E9460
S1131F807631980148E250E060E070E08DEA95E037
S1131F900E944425BE016F5F7F4F80E00E94EE1BCC
S1131FA089819A810E94AF1A9F938F938DE291E069
S1131FB09F938F931F92FF921F930F930E947631EA
S1131FC00FB6F894DEBF0FBECDBF98014FE250E0CC
S1131FD060E070E08DEA95E00E94442526E331E05C
S1131FE048E350E060E070E08DEA95E00E9444250B
S1131FF00E94041D0E94AF1A9F938F938EE191E07B
S11320009F938F931F92FF921F930F930E94763199
S113201098014FE350E060E070E08DEA95E00E94A3
S113202044258D2D9E2D0E94240E8DEA95E00E945C
S1132030AC1F0FB6F894DEBF0FBECDBF81113ECFEB
S113204026960FB6F894DEBF0FBECDBFDF91CF91B9
S11320501F910F91FF90EF90DF900895FF920F93DF
S11320601F93CF93DF93EC018DEA95E00E94991FB3
S113207065E27CE08DEA95E00E949A2584E491E093
S11320800E941A0E64E180E591E00E940B0F8881A2
S113209099810E94AF1A9F938F9389818F9388812E
S11320A08F9381E691E09F938F931F926894FF240E
S11320B0F6F8FF9203E216E01F930F930E94763125
S11320C063E2C8010E940B0F8A819B810E94AF1AB0
S11320D09F938F938B818F938A818F938FE691E067
S11320E09F938F931F92FF921F930F930E947631B9
S11320F06DE2C8010E940B0F8C819D810E94AF1A72
S11321009F938F938D818F938C818F938DE791E033
S11321109F938F931F92FF921F930F930E94763188
S113212067E3C8010E940B0F8DEA95E00E94AC1F83
S11321302DB73EB7225E3F4F0FB6F8943EBF0FBE99
S11321402DBF811195CFDF91CF911F910F91FF90FA
S11321500895DF92EF92FF920F931F93CF93DF9333
S113216000D000D000D0CDB7DEB7D82EE92E8DEA4E
S113217095E00E94991F65E27CE08DEA95E00E945B
S11321809A258BE891E00E941A0EEF92DF928EE07E
S113219091E09F938F931F926894FF24F6F8FF9227
S11321A003E216E01F930F930E947631980140E1F9
S11321B050E060E070E08DEA95E00E94442528E557
S11321C031E049E150E060E070E08DEA95E00E9482
S11321D04425BE016B5F7F4F81E00E94CE1B8D8141
S11321E09E810E94AF1A9F938F938BE191E09F93FE
S11321F08F931F92FF921F930F930E947631980141
S113220041E250E060E070E08DEA95E00E944425F0
S1132210BE016D5F7F4F81E00E94DE1B8B819C813C
S11322200E94AF1A9F938F9384E291E09F938F93C0
S11322301F92FF921F930F930E947631980148E2F8
S113224050E060E070E08DEA95E00E944425BE0114
S11322506F5F7F4F81E00E94EE1B89819A810E940B
S1132260AF1A9F938F938DE291E09F938F931F9268
S1132270FF921F930F930E9476310FB6F894DEBF3E
S11322800FBECDBF98014FE250E060E070E08DEAF0
S113229095E00E94442526E331E048E350E060E005
S11322A070E08DEA95E00E9444250E94041D0E947E
S11322B0AF1A9F938F938EE191E09F938F931F9218
S11322C0FF921F930F930E94763198014FE350E0E1
S11322D060E070E08DEA95E00E9444258D2D9E2DEE
S11322E00E94240E8DEA95E00E94AC1F0FB6F8946C
S11322F0DEBF0FBECDBF81113ECF26960FB6F89438
S1132300DEBF0FBECDBFDF91CF911F910F91FF9024
S1132310EF90DF900895BF92CF92DF92EF92FF92F9
S11323200F931F93CF93DF93B82EC92ED62EE72E8B
S1132330F42E052F8DEA95E00E94991F65E27CE05A
S11323408DEA95E00E949A2588E991E00E941A0E90
S11323508D2D9E2D0E94C50D9F938F937F936F9318
S1132360EF92DF9281EA91E09F938F931F9210E4A2
S11323701F93C3E2D6E0DF93CF930E94763163E2EA
S1132380CE010E940B0F8F2D902F0E94C50D9F939D
S11323908F937F936F930F93FF9280EB91E09F93C2
S11323A08F931F921F93DF93CF930E9476316DE238
S11323B0CE010E940B0F68E573E08DEA95E00E9460
S11323C09A258B2D9C2D0E94C50D9F938F937F93EF
S11323D06F93CF92BF928FEB91E09F938F931F9255
S11323E01F93DF93CF930E9476318DB79EB7849667
S11323F00FB6F8949EBF0FBE8DBF69E1CE010E9457
S11324000B0F8DEA95E00E94AC1F811197CFDF91ED
S1132410CF911F910F91FF90EF90DF90CF90BF90DD
S11324200895BF92CF92DF92EF92FF920F931F9382
S1132430CF93DF93B82EC92ED62EE72EF42E052F78
S11324408DEA95E00E94991F65E27CE08DEA95E0B3
S11324500E949A258EEC91E00E941A0E8B2D9C2DE1
S11324600E94C50D9F938F937F936F93CF92BF92DA
S11324708FEB91E09F938F931F9210E41F93C3E21D
S1132480D6E0DF93CF930E94763166E1CE010E94BD
S11324900B0F8F2D902F0E94C50D9F938F937F93C9
S11324A06F930F93FF9280EB91E09F938F931F9212
S11324B01F93DF93CF930E9476316DE2CE010E9489
S11324C00B0F68E573E08DEA95E00E949A258D2D47
S11324D09E2D0E94C50D9F938F937F936F93EF92D0
S11324E0DF9281EA91E09F938F931F921F93DF9372
S11324F0CF930E9476318DB79EB784960FB6F89429
S11325009EBF0FBE8DBF63E2CE010E940B0F8DEA0A
S113251095E00E94AC1F811197CFDF91CF911F915D
S11325200F91FF90EF90DF90CF90BF900895BF92EE
S1132530CF92DF92EF92FF920F931F93CF93DF938B
S1132540B82EC92ED62EE72EF42E052F8DEA95E04F
S11325500E94991F65E27CE08DEA95E00E949A252D
S113256087ED91E00E941A0E8B2D9C2D0E94C50DC3
S11325709F938F937F936F93CF92BF928FEB91E052
S11325809F938F931F9210E41F93C3E2D6E0DF93CF
S1132590CF930E94763166E1CE010E940B0F8D2D00
S11325A09E2D0E94C50D9F938F937F936F93EF92FF
S11325B0DF9281EA91E09F938F931F921F93DF93A1
S11325C0CF930E94763162E2CE010E940B0F68E540
S11325D073E08DEA95E00E949A258F2D902F0E943A
S11325E0C50D9F938F937F936F930F93FF9280EB0F
S11325F091E09F938F931F921F93DF93CF930E9439
S113260076318DB79EB784960FB6F8949EBF0FBEF1
S11326108DBF60E3CE010E940B0F8DEA95E00E940E
S1132620AC1F811197CFDF91CF911F910F91FF9034
S1132630EF90DF90CF90BF900895CF93DF93EC019C
S11326408DEA95E00E94991F65E27CE08DEA95E0B1
S11326500E949A2582EE91E00E941A0E68E573E0CA
S11326608DEA95E00E949A25CE0164E670E00E940E
S1132670E330982F88230CF491959E012D593F4FF8
S11326802336310518F02BE034E002C020EE31E0AF
S1132690492F092E000C550B5F939F937F936F93E3
S11326A03F932F938EEE91E09F938F931F9280E43C
S11326B08F9383E296E09F938F930E94763163E237
S11326C083E296E00E940B0F8DEA95E00E94AC1F16
S11326D02DB73EB7245F3F4F0FB6F8943EBF0FBEF1
S11326E02DBF8111B1CFDF91CF9108950E94A61E15
S11326F00895CF92DF92EF92FF920F931F93CF939F
S1132700DF93CDB7DEB76A970FB6F894DEBF0FBE7E
S1132710CDBF0E94B5090E94C21E182F0E94BC1E84
S113272090E08830910508F0A9C1FC01EC5CFF4FF2
S11327300C94383189E092E00E94A61ECE010196E5
S11327400E94181A69817A818B819C81AE014B5F4A
S11327505F4F0E94861ACD80DE80EF80F884C70127
S1132760B60124E630E040E050E00E941931022F27
S1132770132FFF2064F4F094E094D094C094C11C0F
S1132780D11CE11CF11CCD82DE82EF82F8866D81C2
S11327907E818F81988524E630E040E050E00E94FD
S11327A01931062E000C770B7F936F931F930F93B1
S11327B082E292E09F938F931F9280E48F9383E24F
S11327C096E09F938F930E94763183E296E00E9475
S11327D0A61E802F912F0E944C0F0FB6F894DEBFD7
S11327E00FBECDBF4BC18FE392E00E94A61E0E9494
S11327F0171C44C183E592E00E94A61ECE010196F7
S11328000E94181A69817A818B819C81AE014B5F89
S11328105F4F0E94861ACD80DE80EF80F884C70166
S1132820B60124E630E040E050E00E941931FF2078
S113283064F4F094E094D094C094C11CD11CE11CC5
S1132840F11CCD82DE82EF82F886C9010E94A910B4
S113285015C189E692E00E94A61EBE01675F7F4F04
S113286081E00E94AD1B133031F489859A850A9664
S11328709A87898707C0143029F489859A850A972D
S11328809A87898769857A8581E00E94381B8A85C1
S11328908F9389858F938AE792E09F938F931F92FA
S11328A080E48F9383E296E09F938F930E94763126
S11328B083E296E00E94A61E4D855E856B857C852D
S11328C089859A850E948B110FB6F894DEBF0FBEDE
S11328D0CDBFD4C089E892E00E94A61EBE01675F06
S11328E07F4F81E00E94AD1B133031F48B859C85B2
S11328F00A969C878B8707C0143029F48B859C85A6
S11329000A979C878B876B857C8581E00E945E1B80
S11329108C858F938B858F938AE992E09F938F9315
S11329201F9280E48F9383E296E09F938F930E949B
S1132930763183E296E00E94A61E4D855E856B8506
S11329407C8589859A850E9411120FB6F894DEBFA2
S11329500FBECDBF93C089EA92E00E94A61EBE01BD
S1132960675F7F4F81E00E94AD1B133031F48D858A
S11329709E850A969E878D8707C0143029F48D851D
S11329809E850A979E878D876D857E8581E00E944E
S1132990841B8E858F938D858F938AEB92E09F9312
S11329A08F931F9280E48F9383E296E09F938F939B
S11329B00E94763183E296E00E94A61E4D855E85D4
S11329C06B857C8589859A850E9497120FB6F89449
S11329D0DEBF0FBECDBF52C089EC92E00E94A61E9E
S11329E0133039F40E94F4198DED92E00E94A61E72
S11329F004C0143011F40E94061A809101019091D0
S1132A0002010E941D133AC081EE92E00E94A61EAC
S1132A10CE0145960E94E00CCE010F960E946C0DEB
S1132A208C898F938B898F938A898F9389898F93CC
S1132A3088898F938F858F931F921F921F921F9265
S1132A401F921F921F921F921F921F921F921F92FA
S1132A5086EE92E09F938F931F9280E48F9383E29C
S1132A6096E09F938F930E94763183E296E00E94D2
S1132A70A61E0FB6F894DEBF0FBECDBF6A960FB682
S1132A80F894DEBF0FBECDBFDF91CF911F910F91A0
S1132A90FF90EF90DF90CF9008950E94971E60E022
S1132AA072EC81E090E00E94941E789483E093E0BD
S1132AB00E94A61E0E94A9090E94671986E793E155
S1132AC00E94831981E00E94FA2E83E193E00E9420
S1132AD0A61E60E074E284EF90E00E948B1E8BE2FD
S1132AE093E00E94A61E0E94EE098DE393E00E94EB
S1132AF0A61E0E94330F8FE493E00E94A61E8FE36C
S1132B009CE90197F1F700C0000080E00E943B0CB3
S1132B108823E1F01F928F9389E693E09F938F932C
S1132B201F9280E48F9383E296E09F938F930E9499
S1132B30763183E296E00E94A61E8DB79EB7089672
S1132B400FB6F8949EBF0FBE8DBF08959FEF21EE80
S1132B5084E0915020408040E1F700C000008BE801
S1132B6093E00E94A61E0E94881908950E94A90954
S1132B700E944D150E9479132FEF81EE94E02150AD
S1132B8080409040E1F700C00000F4CF4F925F9284
S1132B906F927F928F929F92AF92BF92CF92DF9269
S1132BA0EF92FF920F931F93CF93DF9361157105FB
S1132BB019F4009709F494C06115710519F400978C
S1132BC009F091C0EB018C016817790724F00E9489
S1132BD0C4166C0105C0BC01CE010E94C4166C0170
S1132BE025E436E1D6010E9455314B015C01D594B0
S1132BF0C794D594C794D594C794D594C794D594C1
S1132C00C7940D2C000CEE08FF08A7019601C7011C
S1132C10B6010E94BF300E94BF302B013C019B01D2
S1132C20AC01012E1FE055954795379527951A95C8
S1132C30D1F7102DA3E9B9EF0E946A31860E971ED1
S1132C40A81EB91EC301B201052E54E195958795BE
S1132C50779567955A95D1F7502DA70196010E9453
S1132C60BF300E94BF309B01AC01012E1FE055957F
S1132C704795379527951A95D1F7102DAEEBB1E00E
S1132C800E945C31DC01CB01880D991DAA1DBB1D7E
S1132C90072E7FE0B595A795979587957A95D1F7F7
S1132CA0702DC017D10764F408E213E220E030E08D
S1132CB0B901A801481B590B6A0B7B0BDB01CA0144
S1132CC0BB231CF480E090E0DC01893253E29507D9
S1132CD0A105B10554F088E293E2A0E0B0E005C09C
S1132CE080E090E002C088E293E2DF91CF911F91EF
S1132CF00F91FF90EF90DF90CF90BF90AF909F9097
S1132D008F907F906F905F904F900895611520E8A9
S1132D10720711F461E070E8811540E8940711F43A
S1132D2081E090E877232CF099231CF00E94C615CB
S1132D3008951616170674F0992364F07195619539
S1132D4071090E94C61520E536E4A901481B590BF8
S1132D50CA0108951616170674F0181619065CF0C1
S1132D607195619571099195819591090E94C61596
S1132D708055964408959195819591090E94C615B0
S1132D8091958195910908959B01672B11F1092E65
S1132D90000CAA0BBB0BBC01CD01052E5FE0660F36
S1132DA0771F881F991F5A95D1F7502D032E000CB9
S1132DB0440B550B0E941931822F932FA42FB52F4A
S1132DC0811540E89407A105B10534F4BB233CF018
S1132DD008958FEF9FE708958FEF9FE7089580E0B0
S1132DE090E008954F925F926F927F92AF92BF925C
S1132DF0CF92DF92EF92FF920F931F93CF93DF93C3
S1132E00AB01009731F4672B21F441E050E081E0FD
S1132E1090E0811520E8920711F481E090E84115D3
S1132E2020E8520711F441E050E899233CF49195CD
S1132E3081959109AA24AA94BA2C03C0AA24A39424
S1132E40B12C552344F451954195510904C0880F80
S1132E50991F440F551F811520E4920724F441154E
S1132E6020E45207A4F39C01DC010E943E312B01B3
S1132E703C019A01DA010E943E3173016201C60EDF
S1132E80D71EE81EF91EE0E0F0E400E010E0E801DF
S1132E90CE0FDF1F9E01DE010E943E319B01AC017B
S1132EA0012E1FE056954795379527951A95D1F72A
S1132EB0102DC701B601052E5FE09695879577958D
S1132EC067955A95D1F7502D0E94BF304616570684
S1132ED06806790608F08E01F595E7953097B9F6FE
S1132EE0A09EC001A19E900DB09E900D1124DF9173
S1132EF0CF911F910F91FF90EF90DF90CF90BF90F3
S1132F00AF907F906F905F904F900895FC01ACEB71
S1132F10B4E08D919C9111979183808312968D9149
S1132F209C9113979383828314968D919C9115970A
S1132F30958384830895E8ECF4E08FEF9FE795830D
S1132F4084839383828391838083E2ECF4E080E042
S1132F5090E8958384839383828391838083089507
S1132F60CF93DF93BC0190E02EC0292F30E0A9015C
S1132F70440F551FFB01E40FF51FA081B181EA0145
S1132F80C853DB4F48815981A417B5073CF4E901C4
S1132F90CC0FDD1FC853DB4FB983A8834081518117
S1132FA0F901EE0FFF1FEE53FB4F0190F081E02D6E
S1132FB0E417F5073CF4220F331FF901EE53FB4FDE
S1132FC0518340839F5F933080F2DF91CF910895C6
S1132FD00F931F93A0E02FC08A2F90E0BC01660FCF
S1132FE0771FFB01EE53FB4F408151818A01550F3E
S1132FF0220B330BFB01E853FB4F40815181052E1B
S1133000000C660B770B400F511F621F731F8A0160
S11330109B01772324F40F5F1F4F2F4F3F4F3595AC
S1133020279517950795880F991FFC01E454FB4FCA
S113303011830083AF5FA33078F21F910F9108953D
S1133040880F991FFC01EA57FF4F859194910895C9
S1133050865A9F4F68E671E00E94E330FC01EE0F50
S1133060FF1FEA57FF4F8591949108952F923F9245
S11330704F925F926F927F928F929F92AF92BF9284
S1133080CF92DF92EF92FF920F931F93CF93DF9330
S1133090CDB7DEB72E970FB6F894DEBF0FBECDBF07
S11330A09C878B874B015A011901FA82E982B70187
S11330B0C8010E9486169093D5048093D404698134
S11330C07A81C8010E94F2169E878D87B801898192
S11330D09A810E94F2169401990C440B550B2B8390
S11330E03C834D835E836C01990FEE08FF08C70192
S11330F0B6010E94BF302B013C01C501BB0CAA0BD9
S1133100BB0B8F839887A987BA87AD85BE854D0190
S1133110BB0FAA08BB082F81388549855A85C5018C
S1133120B4010E94BF30461A570A680A790A032E6E
S11331303FE075946794579447943A95D1F7302DAE
S11331405092CF044092CE042B813C814D815E810C
S1133150C501B4010E94BF302B013C01A7019601B7
S11331606F81788589859A850E94BF30460E571EE7
S1133170681E791E032E3FE0759467945794479414
S11331803A95D1F7302DD801A50194010E946731F9
S11331904B015C01A981BA81A70196010E946731A4
S11331A075016401C60ED71EE81EF91E0B2EBFE082
S11331B0F594E794D794C794BA95D1F7B02DB60196
S11331C088279927821993090E9486169093D3041D
S11331D08093D2048932B3E29B074CF020E536E4B5
S11331E0A901481B590B5093D3044093D2048091F6
S11331F0D2049091D304883D5CED95074CF420EB08
S113320039EBD901A81BB90BB093D304A093D20412
S1133210B601C1010E94F21622273327281B390B5D
S11332203A832983B101C6010E94F21699231CF442
S11332309195819591092B853C85DC010E943E3155
S11332406B017C019201A981BA810E943E31DC01AB
S1133250CB018C0D9D1DAE1DBF1DBC01CD01052EE6
S11332605FE095958795779567955A95D1F7502D99
S11332702091CE043091CF0488279927821B930B89
S11332800E9486169093D1048093D0042E960FB694
S1133290F894DEBF0FBECDBFDF91CF911F910F9188
S11332A0FF90EF90DF90CF90BF90AF909F908F9062
S11332B07F906F905F904F903F902F9008958091F2
S11332C0D0049091D10408958093D7040895109266
S11332D0D70484E699E10E94B0090895FC01909115
S11332E0D704911103C01092D60408958091D60496
S11332F0882311F0108208958091D704808381E09F
S11333008093D60408959093E5048093E40408958B
S1133310CF93DF93CDB7DEB760970FB6F894DEBFD7
S11333200FBECDBF40E150E060E070E0CE010196F9
S11333300E94373489819A8187349D44B9F435C019
S1133340832F90E0FC01EE0FFF1FE80FF91FE20F3F
S1133350F11DEE0FFF1FE852FB4F118210822F5F09
S113336001C020E0233060F33F5F01C030E0323021
S1133370C0F382EC91E0909302018093010187E411
S11333809DE49A8389838CE0E8EDF4E0DE011396F2
S113339001900D928A95E1F740E150E060E070E021
S11333A0CE0101960E94473416C08CE0FE0133968C
S11333B0A8EDB4E001900D928A95E1F72F85388944
S11333C0C90162E370E00E94E330281B390B30939B
S11333D002012093010160960FB6F894DEBF0FBE80
S11333E0CDBFDF91CF9108958091010190910201A9
S11333F0C296909302018093010142E050E06EE096
S113340070E081E091E00E944734089580910101C9
S113341090910201C297909302018093010142E0CE
S113342050E06EE070E081E091E00E94473408953E
S11334308F929F92AF92BF92CF92DF92EF92FF92C0
S11334400F931F93CF93DF93CDB7DEB72C970FB6AF
S1133450F894DEBF0FBECDBF009709F443C06C01E2
S1133460CE0101960E94320DCE0107960E946C0D8A
S11334700B811C814B855C858F819885ED80FE8056
S113348011950195110929813A8151954195510967
S113349069857A859195819591090E9436180E94D3
S11334A05F19092E000CAA0BBB0BBC01CD016056A1
S11334B073478F4F9F4F0F2EF0EA8F2EFCE89F2EFD
S11334C0A12CB12CF02DA50194010E941931861A6A
S11334D0970AA80AB90AF60180829182A282B3826D
S11334E080E001C081E02C960FB6F894DEBF0FBED9
S11334F0CDBFDF91CF911F910F91FF90EF90DF909F
S1133500CF90BF90AF909F908F9008950F931F938B
S1133510CF93DF93EA010091010110910201012E82
S1133520000C220B330BDC01CB01801B910BA20B93
S1133530B30BBC01CD01605673478F4F9F4F20EAF8
S11335403CE840E050E00E941931688379838A8323
S11335509B8380E0DF91CF911F910F9108950F938A
S11335601F93092E000CAA0BBB0BAC01BD01440F29
S1133570551F661F771F840F951FA61FB71FAC0129
S1133580BD01440F551F661F771F440F551F661F4B
S1133590771F8C019D01040F151F261F371FC901BA
S11335A0B80124E630E040E050E00E941931C9013E
S11335B01F910F910895EF92FF920F931F93CF9352
S11335C0DF9300D000D000D0CDB7DEB7DB017A8323
S11335D06983BA015C834B833E832D83082F10E0FB
S11335E07801EE0CFF1CF701E00FF11FEE0FFF1F37
S11335F0E852FB4FB183A0837383628335832483B2
S1133600B701600F711F660F771F6E5F7F4F42E037
S113361050E0CE0101960E944734B701600F711F3C
S1133620660F771F6C5F7F4F42E050E0CE01039638
S11336300E9447340F5F1F4FB801660F771F600F5A
S1133640711F660F771F6050704042E050E0CE015A
S113365005960E94473426960FB6F894DEBF0FBE37
S1133660CDBFDF91CF911F910F91FF90EF900895FF
S1133670CF93DF9300D0CDB7DEB79B017A83698304
S113368090E0BC01660F771FFB01E80FF91FEE0FF6
S1133690FF1FE852FB4F31832083680F791F660FA9
S11336A0771F6E5F7F4F42E050E0CE0101960E948B
S11336B047340F900F90DF91CF910895CF93DF930C
S11336C000D0CDB7DEB79B017A83698390E0BC015B
S11336D0660F771FFB01E80FF91FEE0FFF1FE8527B
S11336E0FB4F33832283680F791F660F771F6C5F4C
S11336F07F4F42E050E0CE0101960E9447340F9084
S11337000F90DF91CF910895CF93DF9300D0CDB781
S1133710DEB77A83698390E0FC01EE0FFF1FE80FA8
S1133720F91FEE0FFF1FE852FB4F75836483019668
S1133730BC01660F771F860F971FBC01660F771FAA
S11337406050704042E050E0CE0101960E94473440
S11337500F900F90DF91CF910895CF93DF93EB01FA
S113376090E0FC01EE0FFF1FDF01A80FB91FAA0FA5
S1133770BB1FA852BB4F2D913C91119739832883CD
S113378012962D913C9113973B832A83FD018481EA
S113379095819D838C83DF91CF91089590E0FC0106
S11337A0EE0FFF1FE80FF91FEE0FFF1FE852FB4F4C
S11337B080819181FB0191838083089590E0FC01D5
S11337C0EE0FFF1FE80FF91FEE0FFF1FE852FB4F2C
S11337D082819381FB0191838083089590E0FC01B1
S11337E0EE0FFF1FE80FF91FEE0FFF1FE852FB4F0C
S11337F084819581FB0191838083089590E0FC018D
S1133800EE0FFF1FDF01A80FB91FAA0FBB1FA8529D
S1133810BB4F14964D915C91159712966D917C91C6
S11338201397FD01808191810E94A60D0895CF9286
S1133830DF92EF92FF920F931F93CF93DF93CDB755
S1133840DEB72C970FB6F894DEBF0FBECDBF40E0B5
S113385050E060E070E080E090E00E94A60D8823D4
S113386041F0E091E404F091E50485EC93E00995DE
S1133870BCC0E091E404F091E5048EED93E0099579
S11338800E949B1700E010E0C12CD12C760160C08F
S1133890CE0101960E946C0DCE0101960E94B017D4
S11338A00E94E817CE0107960E9486178C858F9395
S11338B08B858F938A858F9389858F9388858F9342
S11338C08F818F938FE194E09F938F931F9280E475
S11338D08F9383E296E09F938F930E947631E091D9
S11338E0E404F091E50483E296E009959801ADECD7
S11338F0BCEC0E944631969587959695879596954A
S113390087959C01220F331F880F991F880F991FD9
S1133910880F991F820F931F0FB6F894DEBF0FBE56
S1133920CDBF0817190721F4CE0107960E942E1067
S11339303FEF89EF90E0315080409040E1F700C0C4
S1133940000024E1C20ED11CE11CF11C0F5F1F4FCB
S113395030E1C31637E2D306E104F10408F498CF4A
S11339600E94E817CE0107960E9486178C858F93D4
S11339708B858F938A858F9389858F9388858F9381
S11339808F818F938CE094E09F938F931F9280E4B8
S11339908F9383E296E09F938F930E947631E09118
S11339A0E404F091E50483E296E009952B853C85D7
S11339B049855A856F81788580E00E94DB1AE09101
S11339C0E404F091E50485E394E0099580E00E9425
S11339D0FE1BE091E404F091E50487E494E009958A
S11339E00FB6F894DEBF0FBECDBF2C960FB6F89479
S11339F0DEBF0FBECDBFDF91CF911F910F91FF901E
S1133A00EF90DF90CF9008954F925F926F927F92E4
S1133A108F929F92AF92BF92CF92DF92EF92FF92DA
S1133A200F931F93CF93DF9300D000D000D0CDB776
S1133A30DEB7CE0101960E946C0D89819A8199238B
S1133A402CF49195819591099A8389838B819C812A
S1133A5099232CF49195819591099C838B838D8175
S1133A609E8199232CF49195819591099E838D8350
S1133A70E980FA800B811C810E151F050CF069C0CA
S1133A80AD80BE80AE14BF040CF063C0A016B106B6
S1133A9084F5B801110F880B990B0E94C62F20E002
S1133AA030E040E05FE30E9452302B013C01B7015B
S1133AB0FF0C880B990B0E94C62FA30192010E9450
S1133AC0222F6B017C01B501BB0C880B990B0E9462
S1133AD0C62F20E030E040E85EE30E9452309B01B4
S1133AE0AC01C701B6010E94222F0E948E2FCB0188
S1133AF0FBC0B501BB0C880B990B0E94C62F20E0BC
S1133B0030E040E05FE30E9452304B015C01B701BA
S1133B10FF0C880B990B0E94C62FA50194010E94EB
S1133B20222F6B017C01B801110F880B990B0E94A5
S1133B30C62F20E030E040E85EE30E9452309B0153
S1133B40AC01C701B6010E94222F0E948E2FCB0127
S1133B50CBC0CD80DE80C016D1060CF063C0CE147D
S1133B60DF0484F5B701FF0C880B990B0E94C62F64
S1133B7020E030E040E05FE30E9452304B015C0102
S1133B80B801110F880B990B0E94C62FA50194014F
S1133B900E94222F4B015C01B601DD0C880B990BAE
S1133BA00E94C62F20E030E040E85EE30E945230DD
S1133BB09B01AC01C501B4010E94222F0E948E2FEB
S1133BC0CB0192C0B601DD0C880B990B0E94C62F65
S1133BD020E030E040E05FE30E9452304B015C01A2
S1133BE0B801110F880B990B0E94C62FA5019401EF
S1133BF00E94222F4B015C01B701FF0C880B990B2B
S1133C000E94C62F20E030E040E85EE30E9452307C
S1133C109B01AC01C501B4010E94222F0E948E2F8A
S1133C20CB0162C00E151F0584F5B701FF0C880B8C
S1133C30990B0E94C62F20E030E040E05FE30E9431
S1133C4052304B015C01B601DD0C880B990B0E94CC
S1133C50C62FA50194010E94222F6B017C01B8019B
S1133C60110F880B990B0E94C62F20E030E040E82A
S1133C705EE30E9452309B01AC01C701B6010E9471
S1133C80222F0E948E2FCB012FC0B801110F880B59
S1133C90990B0E94C62F20E030E040E05FE30E94D1
S1133CA052304B015C01B601DD0C880B990B0E946C
S1133CB0C62FA50194010E94222F4B015C01B7017C
S1133CC0FF0C880B990B0E94C62F20E030E040E8DF
S1133CD05EE30E9452309B01AC01C501B4010E9415
S1133CE0222F0E948E2FCB0126960FB6F894DEBFAA
S1133CF00FBECDBFDF91CF911F910F91FF90EF9039
S1133D00DF90CF90BF90AF909F908F907F906F90F7
S1133D105F904F9008950E94480B0895682F86EE97
S1133D2094E00E940D2F08950E94240C08958EE8BB
S1133D309EE10E941F0C40E46BEE74E086EE94E07A
S1133D400E94052F08950E94340C08950F931F9329
S1133D50CF93DF938C01C0E0D0E003C00E94A31E88
S1133D602196F801EC0FFD1F80818111F7CFDF91BF
S1133D70CF911F910F91089580912B050895809301
S1133D802B050895CF93DF931F92CDB7DEB7CE01F5
S1133D9001960E946E1989818F5B0E94A31E0E9466
S1133DA0BC1E90E08730910508F045C0FC01E45C3E
S1133DB0FF4F0C9438318981823039F481E00E94BC
S1133DC0FE1B82E00E94BF1E36C08130A1F50E9416
S1133DD0BF1E31C080E00E94BF1E2DC08981823089
S1133DE021F486E00E94BF1E26C0813021F583E0C5
S1133DF00E94BF1E20C089818130E9F484E00E94C2
S1133E00BF1E19C089818130B1F485E00E94BF1EB4
S1133E1012C08981813079F40E94FE1B82E00E94E5
S1133E20BF1E09C08981823031F480E00E94FE1BEC
S1133E3080E00E94BF1E89810F90DF91CF91089589
S1133E401F920F920FB60F9211248F9381E08093EB
S1133E502C058F910F900FBE0F901F9018950F9304
S1133E601F93DC01ED91FC911197208992960D919D
S1133E701C919397629FB0011124660F771F660F00
S1133E80771F660F771F060F171F60E00E949F2C95
S1133E901F910F910895EF92FF920F931F93CF9369
S1133EA0DF938C01DC019496FC9094979596DC91B9
S1133EB09597ED91FC91E188C0E04D2F6C2FC801DE
S1133EC00E942F1FCF5FDF5FCF1510F4DE15A8F31C
S1133ED0DF91CF911F910F91FF90EF900895FC0116
S1133EE0A081B18150969C9144A1949FA00111247A
S1133EF0440F551F440F551F440F551F60E070E0D9
S1133F0082A193A10E946F310895CF93DF93EC01B6
S1133F106DA3E8A1F9A10190F081E02D0995E8A134
S1133F20F9A10280F381E02DCE010995DF91CF91B3
S1133F300895CF93DF93EC01FC01EB58FF4F808190
S1133F40882319F0CE010E946F1F60E0CE010E9409
S1133F50851FDF91CF9108951F93CF93DF93EC01D9
S1133F600E944B1F1DA18CA1180FE881F981818942
S1133F70181728F0CE010E94EE2C80E00EC0FE013E
S1133F80EB58FF4F8081882319F0CE010E946F1FE8
S1133F90612FCE010E94851F81E0DF91CF911F9197
S1133FA008958F929F92AF92BF92CF92DF92EF9239
S1133FB00F931F93CF93DF935C016B014A01E901D7
S1133FC0E0FE11C0A80148195909B9016C0D7D1D05
S1133FD00E949926A8014C195D09B4016C0F7D1F3C
S1133FE0C5010E949926E1FE12C0A8014819590989
S1133FF0BE016C197D09C5010E949926A8014C19BE
S11340005D09BE0168197909C5010E949926E3FE7C
S113401012C0A801480D591DBE016C0D7D1DC501BE
S11340200E949926A8014C0D5D1DB4016C0F7D1FE3
S1134030C5010E949926E2FE12C0A801480D591D2F
S1134040BE016C197D09C5010E949926A8014C0D79
S11340505D1DBE0168197909C5010E949926DF9189
S1134060CF911F910F91EF90DF90CF90BF90AF90C1
S11340709F908F9008952F923F924F925F926F92EC
S11340807F928F929F92AF92BF92CF92DF92EF92E4
S1134090FF920F931F93CF93DF9300D000D0CDB73F
S11340A0DEB72C017A8369831A015901F02E81E06D
S11340B090E0821B930B9C838B8366247724621A83
S11340C0730A660C771CE02E8A019B01A50160E04F
S11340D070E0C2010E94D11FC12CD12C882483948A
S11340E0912C25C08B819C81992364F091E0A91ABD
S11340F0B10882E0680E711C8B819C81860D971D2E
S11341009C838B839FEFC91AD90A82E0880E911C85
S11341108B819C81880D991D9C838B83EF2C81015D
S113412029813A81A501B601C2010E94D11FCA1496
S1134130DB04C0F20F900F900F900F90DF91CF919E
S11341401F910F91FF90EF90DF90CF90BF90AF90B1
S11341509F908F907F906F905F904F903F902F90A3
S113416008959F92AF92BF92CF92DF92EF92FF9207
S11341700F931F93CF93DF935C017B016A01E901E5
S1134180902E8A01020F131F260F371F0F5F1F4F38
S11341902F5F3F4F4C1B5D0B6C1B7D0B0E94D22687
S11341A0882339F0092D9E01A601B701C5010E949B
S11341B03B20DF91CF911F910F91FF90EF90DF9003
S11341C0CF90BF90AF909F90089521E0FC01208391
S11341D08DE295E00895CF92DF92EF92FF920F93D4
S11341E01F93CF93DF931F92CDB7DEB77C016B0192
S11341F089019A014FE15CE26CE67DE20E94D42DD4
S1134200CE0101960E94E520860123E837E2498128
S1134210BC01C7010E94352B0F90DF91CF911F91F4
S11342200F91FF90EF90DF90CF900895860F911D2E
S1134230FC0184910895FC01E60FF11D849190E046
S11342403196982F8827E4918E0F911D089580E070
S113425090E008950F931F93CF93DF93EC018B01AC
S113426060E0C8010E941621888361E0C8010E94B1
S11342701621898362E0C8010E9416218A8363E0C3
S1134280C8010E9416218B8364E0C8010E94162194
S11342908C8365E0C8010E9416218D8366E0C80105
S11342A00E9416218E8367E0C8010E9416218F8325
S11342B068E0C8010E941621888769E0C8010E944D
S11342C0162189876AE0C8010E9416218A876BE05B
S11342D0C8010E9416218B876CE0C8010E94162138
S11342E08C876DE0C8010E9416218D876EE0C8019D
S11342F00E9416218E876FE0C8010E9416218F87C5
S113430060E1C8010E941621888B61E1C8010E9406
S11343101B219A8B898B63E1C8010E941B219C8B12
S11343208B8B65E1C8010E941B219E8B8D8BDF91D5
S1134330CF911F910F910895DC011A964C911A9711
S1134340ED91FC911197249130E0042E02C0359533
S113435027950A94E2F7822F942F960F983080F0D5
S113436088E0841B31961196FC93EE93E491F0E07F
S113437002C0EE0FFF1F8A95E2F78E2F822B985012
S113438021E030E002C0220F331F6A95E2F721508A
S11343901A969C93822308950F931F93CF93DF93D0
S11343A0EC018C01085B1F4FF80171836083128656
S11343B073966081C8010E949C21F80180877496DD
S11343C06081C8010E949C21F8018187BC9680818C
S11343D0F801848791E0811190E0C85BDF4F9D87ED
S11343E0DF91CF911F910F910895CF93C62F0E9413
S11343F09C21C15021E030E002C0220F331FCA9536
S1134400E2F7821BCF910895213049F018F0223051
S113441059F00FC0840F911D47FD9A950895860F9A
S1134420911D67FD9A950895841B910947FD939505
S11344300895861B910967FD93950895213049F0ED
S113444018F0223059F00FC0860F911D67FD9A9520
S11344500895841B910947FD93950895861B91093E
S113446067FD93950895840F911D47FD9A950895CE
S11344706F927F928F929F92AF92BF92CF92DF9270
S1134480EF92FF920F931F93CF93DF937C01162F2C
S1134490742EFC01E85BFF4F9680D781F701E85B3F
S11344A0FF4FC085C9191C1710F06C2E01C0612E76
S11344B0F701E85BFF4FC480D58006858D2E202F41
S11344C04D2F692D828193810E941E225C01202F31
S11344D04D2F692DC6010E940422772071F0F70147
S11344E0E85BFF4F2485BC962083262D30E0AC0189
S11344F0B501C7010E94FA2510C0F701E85BFF4F20
S1134500238521110AC02585BC962083262D30E001
S1134510AC01B501C7010E94FA251C1720F01C1B31
S1134520DF5F912CBBCF612F690DF701E85BFF4F73
S113453066838782DF91CF911F910F91FF90EF9057
S1134540DF90CF90BF90AF909F908F907F906F90AF
S113455008956F927F928F929F92AF92BF92CF9263
S1134560DF92EF92FF920F931F93CF93DF93EC01AF
S11345707C0188E4E80EF11CCE010E94CC21FE01EE
S1134580EF5AFF4FC0803C966081C7010E94F5211D
S1134590782EFE01E25AFF4F6081C7010E94F52187
S11345A0182FFE01E15AFF4F6081C7010E94F521D7
S11345B0D82EF701608416140CF09BC006851C0DE0
S11345C01195202F412F672D828193810E941E22F5
S11345D05C01F70193838283202F412F672D84810F
S11345E095810E940422F70195838483013089F028
S11345F028F0023001F10330A1F143C09501260DEA
S1134600311D67FC3A958C010C0D111DC7FC1A95E0
S11346103AC0A5014C195109C7FC539595012F5F68
S11346203F4F8C01060D111D67FC1A95BA016F5F8F
S11346307F4F5B0128C0A5014619510967FC5395BA
S113464095012F5F3F4FBC016C197109C7FC73952D
S11346508C010F5F1F4FCB010196FA0131965F0168
S113466012C095012C0D311DC7FC3A95AC014619B9
S1134670510967FC53958C010F5F1F4FCA010196C6
S113468002C08C019501AC01B501CE010E94D22675
S1134690882379F1FE01E85BFF4F16821782FE0141
S11346A0E75AFF4F6081C7010E949C21082FFE0139
S11346B0E65AFF4F6081C7010E949C21182F40E0F9
S11346C0602FCE010E94382241E0612FCE010E946A
S11346D0382261E0C7010E949C218111F0CFFE01C4
S11346E0E85BFF4F87818C15D4F28485CC58DF4F6B
S11346F088838D2DDF91CF911F910F91FF90EF90C3
S1134700DF90CF90BF90AF909F908F907F906F90ED
S11347100895EF92FF920F931F93CF93DF93FC01C1
S1134720EC5BFF4FC081D18167966F3F710509F043
S113473038F56136710530F0B69680819181C80FE5
S1134740D91F0AC06134710538F0FC01E859FF4FE4
S113475080819181C80FD91FCE010196FC0124915B
S1134760222309F43CC0FE01249130E06217730750
S113477011F4019639C0FC018491C80FD11DECCF0E
S11347808B01FC01E459FF4F80819181C80FD91F2F
S11347907E0160E0C7010E941B21C80FD91F62E09F
S11347A0C7010E941B21F4E0EF0EF11C8017910752
S11347B080F3FE01849190E0982F88273196E4914C
S11347C08E2B009779F00817190719F4CE01039678
S11347D00BC0FE013296E491CE0FD11DEACF80E0EA
S11347E090E002C080E090E0DF91CF911F910F91A3
S11347F0FF90EF900895CF93DF93EC01FC01E65B0B
S1134800FF4F71836083329651834083B9010E94C4
S11348108923009741F0BC01CE010E94A922082EF1
S1134820000C990B02C080E090E0DF91CF910895D5
S11348300F931F93CF93DF93EC010E94892300977A
S1134840F1F0BC01CE010E94CC218E01085B1F4F08
S1134850FE01E35AFF4F6081C8010E94F521FE0169
S1134860EE58FF4F808374976081C8010E94F52140
S1134870C15ADF4F6881C8010E94F52101C080E060
S1134880DF91CF911F910F910895BF92CF92DF9244
S1134890EF92FF920F931F93CF93DF93EC018B0161
S11348A0FC01E05BFF4F10820E94722B0F2EF0EC94
S11348B0BF2EF02DE12CF12CC12CD12CEA81FB81EF
S11348C0D8016C91CE0109958F3FBFEF9B07B9F0DA
S11348D00F5F1F4F8E3F2FEF920781F3BC01CE0174
S11348E00E941824E82E880FFF0880ECB81204C038
S11348F0FE01EE58FF4FB080CE0CDF1CDFCFFE016F
S1134900E05BFF4F8081882399F0CE18DF08C80E42
S1134910D11C87FDDA94CE58DF4F8881C80ED11C94
S113492087FDDA941B1424F4CB0CD11CB7FCDA9465
S1134930C601DF91CF911F910F91FF90EF90DF900F
S1134940CF90BF900895CF92DF92EF92FF920F9392
S11349501F93CF93DF93EC018B017A016901FC0172
S1134960EA5AFF4F8081813089F028F08230C9F003
S1134970833011F12BC0FE01EA5BFF4F0190F081FF
S1134980E02DCE010995E80EF91E20C0FE01EA5B78
S1134990FF4F0190F081E02DCE010995081B190B02
S11349A015C0FE01EA5BFF4F0190F081E02DCE01BE
S11349B00995E81AF90A0AC0FE01EA5BFF4F019063
S11349C0F081E02DCE010995080F191F9601A7016A
S11349D0B801CE010E94FB23DF91CF911F910F916B
S11349E0FF90EF90DF90CF900895AF92BF92CF9257
S11349F0DF92EF92FF920F931F93CF93DF93EC011B
S1134A005B016A0189010E94722BE12CF12CEA817D
S1134A10FB81D8016C91CE0109958F3FBFEF9B07B5
S1134A2039F10F5F1F4F8E3F2FEF920781F39C01E7
S1134A30A601B501CE010E94A3249C01FE01EA5AFD
S1134A40FF4F9081913049F028F0923049F0933033
S1134A5051F00BC0A20EB31E08C0C20ED31E05C077
S1134A60A21AB30A02C0C21AD30AE20EF31ECFCFAF
S1134A70C701DF91CF911F910F91FF90EF90DF90CD
S1134A80CF90BF90AF900895E5E6FBE2DC0113966A
S1134A90FC93EE9312970E94F5240895FC01EC5BBD
S1134AA0FF4F20813181232BE1F1B09620813C9688
S1134AB020833B9740813C96408332973081332357
S1134AC081F1313079F439973081231714F43A960F
S1134AD03083FC01E959FF4F2081241714F53A96DD
S1134AE020830895022E000C330BFC01EF59FF4F75
S1134AF0E081DC01AD59BF4F5C91652F052E000CA0
S1134B00770B6E0F711DE7FD7A95261737071CF496
S1134B101D96E50FEC93541724F4FC01EF58FF4F56
S1134B20508308958A5B9F4F27E231E2FC01318371
S1134B3020830895CF93DF93FC01EC5BFF4F20812A
S1134B4031812617370751F0EC0171836083895A4C
S1134B509F4F0E942A21CE010E944E25DF91CF91C2
S1134B60089525E63BE2FC01338322830E94452419
S1134B700895CF93DF93EC01A881B981EB01E8811B
S1134B80F981EA0FFB1FEA17FB0738F4A217B307F2
S1134B9018F4F901319701C0DA01A217B307A8F498
S1134BA04E175F07A0F4A417B50708F0AD012E1740
S1134BB03F0708F09F01FC0151834083241B350B00
S1134BC0EB013983288381E003C080E001C080E0E9
S1134BD0DF91CF9108950F93DC019A96ED91FC91AA
S1134BE09B974E1B5F0B5E96ED91FC915F97099529
S1134BF00F910895EF92FF920F931F93CF93DF933A
S1134C0000D000D000D0CDB7DEB77A8369835C834F
S1134C104B833E832D83FC01E259FF4F20812223E5
S1134C2009F474C02D813E812115310509F46EC04B
S1134C3022303105B0F0023041F4621B730B9B014A
S1134C402F5F3F4F3A8329830CC0033051F44B81CB
S1134C505C81DA01A21BB30B9D012F5F3F4F3C83A4
S1134C602B837C01102F117000FD1DC0FC0120ADB1
S1134C7031AD8B819C818217930708F447C022AD24
S1134C8033AD8217930708F041C026A937A944A978
S1134C9055A9BE016B5F7F4FCE0101960E94B925D5
S1134CA0811123C033C0DC01D4962D913C91D5975A
S1134CB089819A818217930748F1D6962D913C9168
S1134CC0D7978217930710F5DA962D913C91DB97CD
S1134CD0D8964D915C91D997BE016B5F7F4FCE0101
S1134CE003960E94B925882389F0D7019096ED9107
S1134CF0FC9191970480F581E02D2D813E814B81BB
S1134D005C8169817A81012FC701099526960FB6C6
S1134D10F894DEBF0FBECDBFDF91CF911F910F91ED
S1134D20FF90EF9008950F9300E00E94FA250F91F1
S1134D3008950F93FC0180AD91AD48175907A8F071
S1134D4082AD93AD4817590780F484A995A96817D3
S1134D50790758F086A997A96817790730F4CF0125
S1134D6000E021E030E00E94FA250F9108954617F3
S1134D70570740F48217930768F02417350760F447
S1134D8081E008958217930748F42417350740F407
S1134D9081E0089581E0089580E0089580E0089519
S1134DA080E00895CF92DF92EF92FF920F931F93CA
S1134DB0CF93DF93EC017B01690198016AAD7BAD70
S1134DC088AD99AD0E94B726882341F06EA97FA9CA
S1134DD09601A7018CA99DA90E94B726DF91CF91C6
S1134DE01F910F91FF90EF90DF90CF9008953F9225
S1134DF04F925F926F927F928F929F92AF92BF92E7
S1134E00CF92DF92EF92FF920F931F93CF93DF9392
S1134E103C01EB016A0159012617370720F44B01C5
S1134E20821A930A03C04901861A970A0C151D05B4
S1134E3020F42601401A510A03C028014C185D08C9
S1134E408414950438F0942D852D2401892E982EF0
S1134E50312C0CC09A2D8B2D5801092F182F9C2F03
S1134E608D2FE601C92ED82E33243394AC16BD06FB
S1134E7050F49C2D8D2D6801092F182F9C2F8D2FF8
S1134E80E501A92EB82E7201F694E794C016D10656
S1134E9018F401E010E002C00FEF1FEF8FEFA81627
S1134EA0B806E1F481E0A81AB10818C0311006C0B0
S1134EB0A601BE01C3010E94992605C0AE01B60138
S1134EC0C3010E949926C701881999097C012AF413
S1134ED0C00ED11E7201E80EF91E2196AC16BD0655
S1134EE028F7DF91CF911F910F91FF90EF90DF9002
S1134EF0CF90BF90AF909F908F907F906F905F9076
S1134F004F903F9008950F931F93CF93DF93DC014D
S1134F10CA01542F5770C1E0D0E0052E02C0CC0F57
S1134F20DD1F0A94E2F71C2FFD01EC58FF4FE081CE
S1134F30E23010F040E001C04C2FE13009F410E001
S1134F40887FED91FC911197C089C89FF001C99F9A
S1134F50F00D112492968D919C9193976E0F7F1F63
S1134F60FC01E60FF71F011108C08081842B812703
S1134F70819321503109C9F721C09081942B912745
S1134F8090835F5F577021503109511110C096967C
S1134F908D919C919797E80FF91FED01CC58DF4F45
S1134FA08881823008F441E0813021F404C0440F48
S1134FB0110F01C011E021153105F9F6DF91CF91F0
S1134FC01F910F910895FC01208531858285938579
S1134FD0281739072CF54481558184859585480F18
S1134FE0591F558744876681778186859785860F03
S1134FF0971F978786871816190664F46081718154
S1135000460F571F5587448742815381841B950B54
S1135010978786872F5F3F4F3187208781E00895E8
S113502080E008950F931F93FC01C901861B970B21
S11350309801241B350B33832283138702875187FE
S1135040408775876487992344F021E030E03183F9
S11350502083178616868C010FC04FEF5FEF5183B4
S1135060408300271127081B190B41E050E0BA01C7
S1135070621B730B7787668722813381B9010E9493
S1135080E33075836483C801B9010E94E3309783D8
S113509086831F910F9108956F5FFC01808D6817BF
S11350A008F060E0862F08956150FC01808D681738
S11350B010F06FEF680F862F0895EF92FF920F9311
S11350C01F93CF93DF93EC017B01042F10E083E166
S11350D0809FF001819FF00D1124EC0FFD1F86A528
S11350E093E1909FF001919FF00D1124EC0FFD1FAF
S11350F004A4F5A5E02D682FCE010995E82FF0E072
S1135100EE0FFF1FEE0FFF1FEC0FFD1F22813381F7
S11351102E153F0551F493E1909FF001919FF00DFE
S11351201124EC0FFD1F86A7DBCFDF91CF911F91D8
S11351300F91FF90EF900895EF92FF920F931F93BA
S1135140CF93DF93DC01FC01FF968CE498E291831A
S1135150808384E598E29D969C938E939C97129607
S11351606D917C9113979E961C929E97EB0191E012
S11351701FC0292F30E0F901EE0FFF1FEE0FFF1FB4
S1135180EA0FFB1F42815381641775070CF4BA01BF
S11351904C175D0764F49E969C939E97220F331FD1
S11351A0220F331FFD01E20FF31FC281D3819F5FE2
S11351B058968C9158979817E0F26C1B7D0B5B9670
S11351C07C936E935A97672B09F441C08D019E9688
S11351D08C919E977D0191E4E90EF11CD7018C938B
S11351E041E0BE01C8010E945D2840E0BE01C80143
S11351F00E945D2881E0F801818FE6A5F0E0EE0FC2
S1135200FF1FEE0FFF1FE00FF11F20813181D70137
S1135210EC91F0E0EE0FFF1FEE0FFF1FE00FF11F08
S1135220808191812817390721F0F801118E81E0DE
S113523011C0D8015A968D919C915B9701975B960A
S11352409C938E935A97892B21F480E003C080E0CD
S113525001C081E0DF91CF911F910F91FF90EF90FA
S11352600895CF92DF92EF92FF920F931F93CF9303
S1135270DF938C01EC016C9683E1689FC00DD11D16
S113528011246A89E62FF0E0EE0FFF1FEE0FFF1FD7
S1135290E00FF11FC280D380E080F180E889F989B2
S11352A0C8010995E82FF0E0EE0FFF1FEE0FFF1F76
S11352B0E00FF11F02811381208131818A8BA601C5
S11352C0B701CE010E941228DF91CF911F910F9157
S11352D0FF90EF90DF90CF900895FC01108E089519
S11352E0DC0158969C915897963078F4E92FF0E0B9
S11352F0EE0FFF1FEE0FFF1FEA0FFB1F718360838A
S1135300538342839F5F58969C930895CF93DF9372
S1135310FC01A0A5B1A5C3ADD4AD47A950AD55239B
S11353209CF1FB0182A993A9481759076CF5CB019D
S1135330AC17BD07ACF4DD233CF120A931A9A217B9
S1135340B30714F5BB2314F4A0E0B0E0C217D307ED
S11353500CF49E012A1B3B0BBD010E94932614C032
S1135360BB2394F020A931A9C217D3076CF4DD2321
S113537014F4A0E0B0E0A217B3070CF49D012C1BB9
S11353803D0BBE010E949326DF91CF910895EF92C9
S1135390FF920F931F93CF93DF93EC017B010A8D50
S11353A01B8D60E00E94312961E0CE010E94312909
S11353B0898D882341F0CE014C960E94E327CE01CB
S11353C08F960E94E327B701CE010E94862904C06C
S11353D060E0CE010E943129CE014C960E94E32761
S11353E08823B1F304C061E0CE010E943129CE01CB
S11353F08F960E94E3278823B1F3015011091016F8
S113540011060CF3DF91CF911F910F91FF90EF9054
S113541008950F931F93CF93DF93EC018B010E94A8
S11354209C28882321F0B801CE010E94C729DF916E
S1135430CF911F910F91089583E696E00E946D2904
S1135440089583E696E00E9470290895BC0183E6DE
S113545096E00E94092A08956F927F928F929F92FC
S1135460AF92BF92CF92DF92EF92FF920F931F936E
S1135470CF93DF93EC013B014A0159010E941C2A9E
S1135480A401B301CE010E94212AA801B501CE01D5
S11354900E94212AA601B701CE010E94212ACE0131
S11354A00E94262ADF91CF911F910F91FF90EF90D8
S11354B0DF90CF90BF90AF909F908F907F906F9030
S11354C00895CF93DF93FC01A081B18184A190E082
S11354D09C01220F331F220F331F220F331F31A7CA
S11354E020A750962C91509730E0220F331F220FA3
S11354F0331F220F331F37A326A375A1272F30E0B4
S1135500A901440F551F440F551F440F551F53A79E
S113551042A7280F391F51966C915197C62FD0E09E
S1135520C217D30718F4CE01871B9109880F991F5E
S1135530880F991F880F991F55A744A7840F951F9B
S113554097A786A754968D919C91559791AB80AB64
S113555056968D919C91579793AB82ABDF91CF91E7
S113556008950E94612A08950F931F93CF93DF93A8
S1135570EC01FC01EE5BFF4F008111812EAD3FADCC
S11355803297408151816CAD7DAD0E94D22681114C
S113559004C0C259DF4F18822FC081E0FE01E259D6
S11355A0FF4F80832CA93DA98CAD9DAD28173907E9
S11355B010F49DAB8CAB2EA93FA98EAD9FAD821785
S11355C0930710F49FAB8EAB28AD39ADFE01E05CC0
S11355D0FF4F808191812817390710F499AF88AF64
S11355E02AAD3BADFE01EE5BFF4F808191818217B6
S11355F0930710F49BAF8AAFDF91CF911F910F9166
S11356000895FC0115AA14AA80A991A997AB86ABA9
S113561084A595A591AF80AF86A597A593AF82AFDA
S1135620CF010E94B42A08950F930E94EB250F9195
S11356300895DC01DD961C921E92DC97FC01E05C6F
S1135640FF4F118210822FEF3FEFFC0137AF26AFDF
S1135650EE5BFF4F318320839096ED91FC919197FF
S11356600280F381E02D099508950F931F93CF9342
S1135670DF93EC01FC01EC5BFF4F118210823F8F42
S11356802E8F7BA36AA34CA31DA23F961082B096D3
S1135690108234971082359681E08083319680831E
S11356A019A308A3D801ED91FC91CE010995CE016F
S11356B00E94192BCE010E949225CA5ADF4F1882EC
S11356C0DF91CF911F910F910895662329F06A30DD
S11356D031F0862F90E008958FEF9FEF08958FEFBC
S11356E09FEF0895FC01108E0895462FDC01189653
S11356F0ED91FC91199720E030E060E2099508955E
S11357009A01DC011896ED91FC911997462F67E1F7
S113571009950895CF93DF931F92CDB7DEB76983C0
S1135720AE014F5F5F4F61E00E94802B0F90DF91CD
S1135730CF910895462FDC011696ED91FC911797B1
S113574020E030E065E109950895462FDC011696C6
S1135750ED91FC91179720E030E066E109950895FA
S11357609A01DC011696ED91FC911797462F67E19B
S113577009950895DC011696ED91FC91179720E0A8
S113578030E040E068E109950895DC011696ED915A
S1135790FC91179720E030E040E069E10995089515
S11357A0EF92FF920F931F93CF93DF931F92CDB786
S11357B0DEB77C018B01D8016D918D016731B9F0A1
S11357C018F4653130F433C06A31E8F06E3F31F1DA
S11357D02EC0FD0141918F014983D7011696ED91A9
S11357E0FC91179720E030E0C7010995E4CFFD0153
S11357F081918F018983AE014F5F5F4F61E0C701E3
S11358000E94B02BD8CFD7011696ED91FC91179733
S113581020E030E040E0C7010995CDCFFD01419182
S11358208F01498369E2C7010E94B22DC4CF0F9052
S1135830DF91CF911F910F91FF90EF900895EF9218
S1135840FF920F931F93CF93DF938C01C62FD42F16
S113585079016631A1F028F46431E9F0653131F061
S113586025C06731A9F06A3108F515C060E00E94CF
S1135870752B6D2FC8010E948A2B81E018C060E04F
S11358800E94752B6D2FC8010E948A2B81E00FC0E6
S113589061E00E94752BD8011896ED91FC9119973F
S11358A097014D2F6C2FC801099501C080E0DF914D
S11358B0CF911F910F91FF90EF900895FC01718398
S11358C06083FB012289FC01248B0895CF93DF932D
S11358D0EC01EA85FB8520E030E040E068E20995D0
S11358E0EE81FF8120E030E040E064E1CE010995E3
S11358F041E06BE4CE010E94B22DE881F98144813C
S113590069E2CE010E94B22D40E06BE4CE010E9418
S1135910B22DE881F981448169E2CE010E94B22D61
S113592041E06BE4CE010E94B22DE881F98145810A
S113593069E2CE010E94B22DDF91CF9108950F93B9
S11359401F93CF93DF9300D000D01F92CDB7DEB763
S11359506C834D832B831A830983DC011496ED91A8
S1135960FC9115979E012F5F3F4F41E06FE0099531
S11359700F900F900F900F900F90DF91CF911F9188
S11359800F910895DC011496ED91FC91159720E098
S113599030E040E069E009950895DC011496ED914A
S11359A0FC91159720E030E040E06AE00995089505
S11359B0462FDC011496ED91FC91159720E030E020
S11359C06BE009950895462FDC011496ED91FC9146
S11359D0159720E030E06EE009950895DC011496F7
S11359E0ED91FC91159720E030E040E060E10995ED
S11359F00895DF92EF92FF920F931F93CF93DF935B
S1135A008C01C42F79016E3009F44CC06F3021F041
S1135A106B3009F058C038C00E94BA2BF701D3800C
S1135A20DD0CDD0CDD0CF8018489D80E6D2D62953A
S1135A306F706061C8010E949A2B6D2D6F70C80150
S1135A400E949A2BF7016481606BC8010E949A2B13
S1135A50F701D281DD0FDD0FDD0FE080F1808D2DA8
S1135A6090E08D0F911D8538910510F0D4E8DD1973
S1135A70A7016D2FC8010E94B02BC150C9F7C801FE
S1135A800E94C52B81E020C0411106C060EB74E088
S1135A900E94D02B81E018C069EA74E00E94D02BE8
S1135AA081E012C00E94BA2B61E8C8010E949A2BBF
S1135AB06C2F66956695C8010E94A52BC8010E94AB
S1135AC0C52B81E001C080E0DF91CF911F910F9140
S1135AD0FF90EF90DF9008950F931F93CF93DF9380
S1135AE08C01C62FD42F0E94F92C811135C0CA30E5
S1135AF059F0CD3099F0C93081F562E674E0C801FF
S1135B000E945E2C81E029C0C8010E94662C6AE7CD
S1135B1074E0C8010E94D02B81E01FC0D1110EC0D7
S1135B206BE974E0C8010E94D02BD801ED91FC917F
S1135B301197828954968C9381E00FC062EA74E0D5
S1135B40C8010E94D02BD801ED91FC911197838953
S1135B5054968C9381E001C081E0DF91CF911F9135
S1135B600F910895DC011A96ED91FC911B9720E0AA
S1135B7030E00995089580E00895FC0111821082B7
S1135B808BEB9DE2958384839783868391878087BB
S1135B9093878287158A108E148615861686178633
S1135BA08FEF868B828F0895AF92BF92CF92DF9250
S1135BB0EF92FF920F931F93CF93DF93EC015B015E
S1135BC06A0179010E94BD2DBD82AC82DF82CE8242
S1135BD0F986E8861B870A87CE010E94C22CDF91D2
S1135BE0CF911F910F91FF90EF90DF90CF90BF90D6
S1135BF0AF900895CF93DF93EC01683109F488C026
S1135C0030F4643159F0673109F49EC0B4C069318D
S1135C1009F49EC0603209F476C0ADC084B18062DC
S1135C2084B984B1886084B980E58CBDE881F98148
S1135C308485823041F0833051F0813071F48CB529
S1135C4084608CBD0AC08CB588608CBD06C08CB5E0
S1135C5088608CBD8CB584608CBDE881F981208519
S1135C6031854285538560E074E284EF90E00E94C0
S1135C70F730203131054105510539F158F422300E
S1135C80310541055105B1F0283031054105510573
S1135C90A9F030C0203431054105510509F12038FF
S1135CA031054105510501F1203231054105510508
S1135CB009F50FC08DB581608DBD1CC08DB58160A7
S1135CC08DBD8CB581608CBD15C08CB581608CBDDB
S1135CD011C08DB581608DBD8CB582608CBD0AC04C
S1135CE08CB582608CBD06C08CB582608CBD8CB5D1
